:020000040800F2
:1000000060480020F1020008BD220008012000081D
:10001000B9220008D9070008512B00080000000091
:100020000000000000000000000000003102000895
:10003000D9080008000000008D020008CD23000848
:100040000B0300080B0300080B0300080B03000858
:100050000B0300080B0300080B0300080B03000848
:100060000B0300080B0300080B0300080B03000838
:100070000B0300080B0300080B0300080B03000828
:100080000B0300080B0300080B0300080B03000818
:100090000B0300080B0300080B0300080B03000808
:1000A0000B030008CD2400080B0300080B03000815
:1000B0000B0300080B0300080B0300080B030008E8
:1000C0000B0300080B0300080B0300080B030008D8
:1000D0000B030008312B0008412B00080B0300081C
:1000E0000B0300080B0300080B0300080B030008B8
:1000F0000B0300080B0300080B0300080B030008A8
:100100000B0300080B0300080B0300080B03000897
:10011000252600080B0300080B0300080B0300084A
:100120000B0300080B0300080B0300080B03000877
:100130000B0300080B0300080B0300080B03000867
:100140000B0300080B0300080B0300080B03000857
:100150000B0300080B0300080B0300080B03000847
:100160000B0300080B0300080B0300080B03000837
:100170000B0300080B0300080B030008000000003D
:100180000B0300080B03000800F002F800F041F830
:100190000AA090E8000C82448344AAF10107DA45E2
:1001A00001D100F036F8AFF2090EBAE80F0013F0F3
:1001B000010F18BFFB1A43F001031847E83C000089
:1001C000083D0000103A24BF78C878C1FAD8520719
:1001D00024BF30C830C144BF04680C6070470000C1
:1001E0000023002400250026103A28BF78C1FBD840
:1001F000520728BF30C148BF0B607047782900F014
:100200004F81002070471FB503F0D0FD1FBD10B512
:1002100010BD00F07FFA1146FFF7F5FF02F0C6FCB3
:1002200000F09DFA03B4FFF7F2FF03BC02F0AEFC4E
:100230002C4B19680868B0E8F04F80F30988BFF3C9
:100240006F8F4FF0000080F31188704700000000AE
:1002500008480068006880F308884FF0000080F3C9
:10026000148862B661B6BFF34F8FBFF36F8F00DFA4
:1002700000BF00BF08ED00E0DFF80C00016841F4AA
:1002800070010160704700BF88ED00E0EFF3098066
:10029000BFF36F8F134B1A681EF0100F08BF20EDCD
:1002A000108A20E9F04F106009B44FF0500080F33D
:1002B0001188BFF34F8FBFF36F8F03F091F94FF0A9
:1002C000000080F3118809BC19680868B0E8F04F95
:1002D0001EF0100F08BFB0EC108A80F30988BFF33E
:1002E0006F8F704748000020EFF3058070470000D3
:1002F0000948804709480047FEE7FEE7FEE7FEE7BA
:10030000FEE7FEE7FEE7FEE7FEE7FEE704480549F5
:10031000054A064B70470000B9240008890100080F
:1003200060420020604800206044002060440020BB
:10033000704753EA020C00F069802DE9F04B4FF052
:100340000006002B1FBFB3FA83F503FA05F424FA65
:1003500005F65E4012BF1643B2FA82F502FA05F4C2
:10036000C5F120051EBF22FA05FC44EA0C04203525
:1003700056EA044C4FEA144418BF641C4FF00008BE
:100380004FF00009904271EB030C39D3002919BFDB
:10039000B1FA81F701FA07F6B0FA80F700FA07F62A
:1003A000C7F120071EBF20FA07FC46EA0C062037DB
:1003B000B6FBF4FCA7EB0507103F07F01F0BCBF1D2
:1003C00020060CFA0BFB2CFA06F644BFB3460026B7
:1003D000202FA4BF5E464FF0000B5BEA060C08BF5F
:1003E0004FF0010B19EB0B09ABFB027C48EB060845
:1003F000C01B06FB02CC0BFB03CC71EB0C01C1E76D
:100400000B46024641464846BDE8F08B13B54FF017
:1004100000004FF00001AFF30080BDE81C407047C2
:100420000FB4044910B503AA029800F023F910BCD8
:100430005DF814FB240000202DE9F0410E4604462F
:10044000002020622046E168884730B3252805D087
:10045000D4E901219047206A401CF2E7E168204678
:1004600000278847050018D0A5F14100192802D8B7
:1004700020354FF400673246294620462760FFF7B3
:10048000BDFE40B1012804D0F61D26F0070608364F
:10049000D8E7361DD6E72846DAE7206ABDE8F081BE
:1004A00070B504460D4621461068AFF300802188E0
:1004B000090502D50F4A7A4402E00E4A7A440E3208
:1004C000002104F1240305E000F00F060009965D09
:1004D0005E54491C0028F7D120780023000704D57A
:1004E000702D02D009B1022311322046BDE87040C0
:1004F00000F067B89639000010B5203AC0F00B80C4
:10050000B1E81850203AA0E81850B1E81850A0E817
:100510001850BFF4F5AF5FEA027C24BFB1E8185071
:10052000A0E8185044BF18C918C0BDE810405FEAE1
:10053000827C24BF51F8043B40F8043B08BF70475D
:10054000D20728BF31F8023B48BF11F8012B28BF62
:1005500020F8023B48BF00F8012B704702F0FF0370
:1005600043EA032242EA024200F098B84FF0000248
:1005700000B5134694469646203922BFA0E80C5099
:10058000A0E80C50B1F12001BFF4F7AF090728BF74
:10059000A0E80C5048BF0CC05DF804EB890028BFF0
:1005A00040F8042B08BF704748BF20F8022B11F019
:1005B000804F18BF00F8012B704770477047704795
:1005C00070472DE9F0470D4699469246044600F1E2
:1005D00024080168880604D5E06921F01001216033
:1005E00000E00120A84201DD471B00E00027A169CF
:1005F0007A1902EB0900081AA0612078C00602D41B
:100600002046AFF30080002608E0D4E901211AF863
:1006100006009047206A401C761C20624E45F4DBA1
:100620002078C0060AD52046AFF3008006E0D4E962
:10063000012130209047206A401C2062381EA7F11B
:100640000107F4DC07E0D4E9012118F80500904720
:10065000206A401C2062281EA5F10105F3DC20461B
:10066000AFF300802078000602D50220BDE8F087B5
:100670000120FBE7074B70B50D467B4400F033F8D3
:100680000446284600F042F810B14FF0FF3070BD2C
:10069000204670BD132500004FF000020429C0F071
:1006A000128010F0030C3FF463AFCCF1040CBCF1EA
:1006B000020F18BF00F8012BA8BF20F8022BA1EBF6
:1006C0000C01FFF755BF5FEAC17C24BF00F8012B86
:1006D00000F8012B48BF00F8012B704701694A1C44
:1006E00002610878704700B58FB0CDE90131002173
:1006F000059105497944CDE9031011466846FFF795
:100700009BFE0FB000BD0000E5FFFFFF007B00F087
:1007100080007047754600F02BF8AE46050069462C
:10072000534620F00700854618B020B5FFF7EEFDD0
:10073000BDE820404FF000064FF000074FF00008E2
:100740004FF0000B21F00701AC46ACE8C009ACE863
:10075000C009ACE8C009ACE8C0098D46704710B5C7
:100760000446AFF300802046BDE81040FFF75ABDB5
:10077000004870470042002010B50D4840890C49E0
:10078000097A00EB01200B4908800948C089084913
:10079000097B00EB0120074948800846018806A034
:1007A000FFF73EFE0348418807A0FFF739FE10BD62
:1007B000E803002028000020535F54656D702D2D44
:1007C0002D2D2D25780A0000535F48756D692D2D5C
:1007D0002D2D2D25780A000000BFFEE77CB50446CC
:1007E00020780006617800EB0140A17800EB012041
:1007F000E1780844009020790006617900EB01401F
:10080000019002226946074800F08AF80546280E42
:1008100005490870280C4870280A8870CD70084671
:100820007CBD0000180000202000002010B501F061
:1008300071FD1848007860B317480088FF2828D158
:1008400015484088012824D11348C08812490979E5
:1008500000EB012084B2A4F2011010B1012812D1E2
:1008600008E00E48038840F201120121FF2001F048
:10087000A1FE0CE00948438840F201120121FF204B
:1008800001F098FE03E006A0FFF7CAFD00BF00BF1D
:1008900000BF10BD00000020D4030020280000206D
:1008A0006E6F2066756E636174696F6E0000000084
:1008B00000BFFFF7BBFF03A0FFF7B2FD012002F06E
:1008C00090F9F6E7646174612070726F6365737309
:1008D000207461736B000000704772B600BFFEE7C2
:1008E00000BF00F00FF8FFF747FF03A0FFF798FDE8
:1008F000012002F076F9F4E76765742074682074CB
:1009000061736B001CB504A103C9CDE90001082186
:10091000684601F0D5FC1CBD02040000000271F81D
:1009200070B503460C46002002255D711D68AD6858
:1009300045F001051E68B560002104E054F821501F
:100940001E683560491C9142F8D31D68286801254E
:100950005D7170BD10B504460CB9012010BD607901
:1009600020B900202071204600F004F801206071B9
:100970000020F3E708B50A4A016891420FD100BF91
:10098000002100910749096841F48051054A11602E
:100990001146096801F48051009100BF00BF08BDF5
:1009A000003002403038024070B50446A56D00F0BA
:1009B00077F9064694F83500022808D08020606553
:1009C00000BF002084F8340000BF012070BD206803
:1009D000006820F01600216808602068406920F057
:1009E000800021684861206C08B9A06C28B120689B
:1009F000006820F00800216808602068006820F086
:100A000001002168086010E000F04AF9801B052809
:100A10000BD920206065032084F8350000BF00203A
:100A200084F8340000BF0320D0E72068006800F09D
:100A300001000028E8D194F85C103F208840A860AD
:100A4000012084F8350000BF002084F8340000BF86
:100A500000BFBBE7014691F83500022803D0802093
:100A6000486501207047052081F835000868006856
:100A700020F001000A6810600020F3E770B504461A
:100A800000F00EF906462546681C10B104480078AF
:100A9000054400BF00F004F9801BA842FAD370BDE2
:100AA00040000020F8B502460B4600250024002037
:100AB0000021D5E0012606FA01F51E6806EA0504C4
:100AC000AC4274D11E7906F00306012E04D01E79C3
:100AD00006F00306022E13D190684F000326BE4095
:100AE000B0434F00DE68BE4030439060506801263E
:100AF0008E40B0431E79C6F300168E4030435060DE
:100B00001E7906F00306032E09D0D0684F00032695
:100B1000BE40B0434F009E68BE403043D0601E7957
:100B200006F00306022E13D1CF0802F1200656F874
:100B300027004E07F70E0F26BE40B0434F07FF0EAB
:100B40001E69BE403043CF0802F1200646F8270058
:100B500010684F000326BE40B0431E7906F003061E
:100B60004F00BE40304310605E6806F44036002EF1
:100B700075D000BF002600963B4E366846F480468E
:100B8000394F3E603E46366806F48046009600BF08
:100B900000BF364E8F0856F827008E07370F0F26F6
:100BA000BE40B043324EB24202D1002624E056E0AD
:100BB000304EB24201D101261EE02F4EB24201D189
:100BC000022619E02D4EB24201D1032614E02C4E2C
:100BD000B24201D104260FE02A4EB24201D10526CD
:100BE0000AE0294EB24201D1062605E0274EB24264
:100BF00001D1072600E008268F073F0FBE40304393
:100C00001A4E8F0846F82700214E3068A0435E68D0
:100C100006F4803606B120431D4E3060361D306824
:100C2000A0435E6806F4003606B12043184E361D18
:100C30003060361D3068A0435E6806F4801606B149
:100C40002043134E08363060361D3068A0435E687E
:100C500006F4001606B120430D4E0C363060491CD8
:100C60001029FFF427AFF8BD44380240083801408E
:100C7000000002400004024000080240000C024054
:100C8000001002400014024000180240001C024004
:100C9000003C01400AB1816101E00B0483617047AF
:100CA00001480068704700003800002003480068D1
:100CB000034909780844014908607047380000205A
:100CC0004000002010B50D48006840F400700B494A
:100CD00008600846006840F48060086008460068C4
:100CE00040F480700860032000F0C8F80F2000F086
:100CF00007F800F04BF8002010BD0000003C024057
:100D000070B588B00446002500260022214619202F
:100D100000F076F8192000F063F800BF0020019081
:100D20001648006840F00100144908600846006851
:100D300000F00100019000BF00BF02A903A800F06D
:100D400073F900F0A9F945000D48B5FBF0F0461E17
:100D50000C480D49086040F2E7310B48C16046601D
:100D600000210161816000F04FFC20B9064800F0CD
:100D70007FFC08B070BD0120FBE700004438024052
:100D800040420F0000000140C804002008B500BF29
:100D9000002000901148006840F480400F4908602E
:100DA0000846006800F48040009000BF00BF00BF0C
:100DB00000200090081F006840F08050091F086064
:100DC0000846006800F08050009000BF00BF00227D
:100DD0000F21901E00F014F808BD000044380240B6
:100DE00001460846002809DB00F01F0301229A4053
:100DF00043099B0003F1E023C3F8002100BF7047C3
:100E00002DE9F05F80460D461646002701F0A2FE50
:100E1000074639462A46334601F00700C0F1070A63
:100E2000BAF1040F02D94FF0040A01E0C0F1070A39
:100E3000D14600F1040ABAF1070F02D24FF0000ABE
:100E400001E0A0F1030AD4464FF0010A0AFA09FAB8
:100E5000AAF1010A0AEA020A0AFA0CFA4FF0010B97
:100E60000BFA0CFBABF1010B0BEA030B4AEA0B0488
:100E70002146404601F076FEBDE8F09F00BF00F03D
:100E80000702064B19684FF6FF031940044B0B434A
:100E900043EA0221014B196000BF70470CED00E0EE
:100EA0000000FA0570B504460D460CB9012070BD6E
:100EB0005848006800F00700A84209D255490D7053
:100EC0000846006800F00700A84201D00120EEE7C4
:100ED000207800F0020002281DD1207800F00400E4
:100EE000042805D14C48006840F4E0504A490860A5
:100EF000207800F00800082805D14748006840F431
:100F00006040454908604448006820F0F000A1684E
:100F1000084341490860207800F00100A8B36068E8
:100F2000012807D13C4808380068C0F34040B8B9F0
:100F30000120BCE76068022802D06068032807D15E
:100F4000354808380068C0F3406048B90120AEE772
:100F5000314808380068C0F3400008B90120A6E70E
:100F60002D48006820F00300616808432A490860A2
:100F7000FFF796FE064609E0FFF792FE801B41F25E
:100F80008831884202D9032091E707E022480068AF
:100F900000F00C006168B0EB810FEDD11D480068D6
:100FA00000F00700A84209D91A490D7008460068E8
:100FB00000F00700A84201D0012078E7207800F077
:100FC0000400042807D11448006820F4E050E168C8
:100FD000084311490860207800F00800082808D16B
:100FE0000D48006820F46040216940EAC1000A49C8
:100FF000086000F061F808490968C1F30311074A65
:10100000515CC8400649086006480068FFF778FE52
:1010100000204CE7003C024008380240383E0008FF
:10102000440000203C0000200F2202600D4A12689C
:1010300002F0030242600B4A126802F0F002826082
:10104000084A126802F4E052C260064A126802F4CA
:101050006042D2080261044A126802F007020A6084
:101060007047000008380240003C02400148006818
:10107000704700004400002000B5FFF7F7FF044967
:101080000968C1F38221034A515CC84000BD0000D9
:1010900008380240483E000800B5FFF7E7FF044962
:1010A0000968C1F34231034A515CC84000BD0000E9
:1010B00008380240483E00082DE9F047002400258A
:1010C0000026A1462548006800F00C0020B1042845
:1010D00005D008283AD105E0DFF8849039E0DFF840
:1010E000849036E01D48001F006800F03F041B4854
:1010F000001F006800F4800078B11A481749091FE2
:101100000968C1F38811A0FB017001462246002343
:101110003846FFF70EF905460EE011480F49091F42
:101120000968C1F38811A0FB017001462246002323
:101130003846FFF7FEF805460848001F0068C0F370
:101140000140401C4600B5FBF6F902E0DFF81090C4
:1011500000BF00BF4846BDE8F087000008380240E5
:101160000024F40040787D01F8B504460CB9012054
:10117000F8BD207800F00100002874D0F94800681C
:1011800000F00C0004280DD0F648006800F00C00B8
:10119000082813D1F348001F006800F48000B0F560
:1011A000800F0BD1EF4808380068C0F3404000289A
:1011B00059D06068002856D10120D9E700BF606887
:1011C000B0F5803F08D1E7480838006840F4803027
:1011D000E449083908601EE06068B0F5A02F0DD121
:1011E000E0480838006840F48020DE49083908608B
:1011F0000846006840F4803008600CE0D9480838A0
:10120000006820F48030D749083908600846006833
:1012100020F48020086000BF606890B1FFF740FDB7
:10122000054606E0FFF73CFD401B642801D903207A
:101230009EE7CC4808380068C0F340400028F1D051
:1012400011E0FFF72DFD054606E0FFF729FD401BE5
:10125000642801D903208BE7C24808380068C0F32E
:1012600040400028F1D1207800F0020002285FD130
:10127000BC48006800F00C0058B1BA48006800F0A3
:101280000C0008281CD1B748001F006800F480003B
:10129000B0B9B44808380068C0F3400020B1E06835
:1012A000012801D0012063E7AE480838006820F02B
:1012B000F800216940EAC100AA490839086037E00E
:1012C000E06800B30120A8490860FFF7E9FC054683
:1012D00006E0FFF7E5FC401B022801D9032047E7A1
:1012E000A04808380068C0F340000028F1D09D48AD
:1012F0000838006820F0F800216940EAC1009949E7
:101300000839086014E0002097490860FFF7C8FC1E
:10131000054606E0FFF7C4FC401B022801D9032064
:1013200026E7904808380068C0F340000028F1D153
:10133000207800F0080008282CD16069A8B10120AD
:101340008A490860FFF7ACFC054606E0FFF7A8FCF9
:10135000401B022801D903200AE782486C3000684C
:10136000C0F340000028F1D014E000207F4908605D
:10137000FFF796FC054606E0FFF792FC401B0228AB
:1013800001D90320F4E677486C300068C0F34000D0
:101390000028F1D1207800F00400042870D1002743
:1013A00070483830006800F0805090B900BF0020CD
:1013B00000906C483830006840F0805069493831FE
:1013C00008600846006800F08050009000BF00BF31
:1013D00001276748006800F48070B0B9644800686D
:1013E00040F4807062490860FFF75AFC054606E049
:1013F000FFF756FC401B022801D90320B8E65C48E1
:10140000006800F480700028F2D000BFA0680128B6
:1014100008D154486830006840F0010051496831F3
:1014200008601DE0A06805280DD14E4868300068AE
:1014300040F004004B49683108600846006840F0FD
:10144000010008600CE047486830006820F00100A7
:101450004449683108600846006820F004000860CC
:1014600000BFA068A8B1FFF71BFC054609E0FFF725
:1014700017FC401B41F28831884202D9032077E6ED
:1014800026E0384868300068C0F340000028EED0FD
:1014900013E0FFF705FC054608E0FFF701FC401BE1
:1014A00041F28831884201D9032061E62D48683035
:1014B0000068C0F340000028EFD1012F07D1294870
:1014C0003830006820F0805026493831086000BF6D
:1014D000A069002845D02348006800F00C000828C7
:1014E0005DD0A069022845D100201F490866FFF79A
:1014F000D7FB054606E0FFF7D3FB401B022801D9C6
:10150000032035E6174808380068C0F3406000281B
:10151000F1D1D4E907010843616A40EA811101224F
:10152000A06AC2EB500041EA00412C20005D41EA74
:1015300000600C49091F086001200B490866FFF78D
:10154000AFFB054606E0FFF7ABFB401B022801D9C5
:1015500003200DE6034808380068C0F34060002807
:10156000F1D049E00838024000004742800E47426F
:1015700000700040002021490866FFF791FB0546F6
:1015800006E0FFF78DFB401B022801D90320EFE5A1
:101590001B480068C0F340600028F2D12CE0A0692D
:1015A000012800D1E4E51648001D0668A06901285D
:1015B00020D006F48001E06981421BD106F03F0192
:1015C000206A814216D147F6C0703040616AB0EBA4
:1015D000811F0FD106F440310122A06AC2EB5000F6
:1015E000B1EB004F06D106F070612C20005DB1EB2D
:1015F000006F01D00120BBE50020B9E500004742A3
:10160000003802407047704710B504460CB90120FD
:1016100010BD94F83D0028B9002084F83C00204615
:1016200000F025F8022084F83D00211D206800F01C
:1016300055FF012084F8460000BF84F83E000121D8
:101640003F200155402001554120015500BF00BFFA
:10165000012084F8420043200155442001554520D3
:10166000015500BF012084F83D000020D0E77047FD
:10167000014691F83D00012801D001207047022069
:1016800081F83D000868C06840F001000B68D86030
:101690001A4B086898421BD00868B0F1804F17D0E9
:1016A000174B0868984213D0164B086898420FD021
:1016B000154B086898420BD0144B0868984207D025
:1016C000134B0868984203D0124B086898420CD11B
:1016D0000868806800F00702062A0CD008680068D5
:1016E00040F001000B68186005E00868006840F0F1
:1016F00001000B6818600020C0E7000000000140F6
:101700000004004000080040000C004000040140BC
:101710000040014000180040704710B504462068A2
:101720000069C0F34000D8B12068C068C0F3400031
:10173000B0B16FF0020021680861012020772068B5
:10174000806900F0030018B12046FFF7E5FF05E0CF
:10175000204600F0ADF8204600F0ABF800202077DE
:1017600020680069C0F38000D8B12068C068C0F369
:101770008000B0B16FF0040021680861022020777A
:101780002068806900F4407018B12046FFF7C4FF5C
:1017900005E0204600F08CF8204600F08AF8002092
:1017A000207720680069C0F3C000D8B12068C06805
:1017B000C0F3C000B0B16FF00800216808610420D8
:1017C00020772068C06900F0030018B12046FFF7B9
:1017D000A3FF05E0204600F06BF8204600F069F812
:1017E0000020207720680069C0F30010D8B120687D
:1017F000C068C0F30010B0B16FF01000216808613C
:10180000082020772068C06900F4407018B1204695
:10181000FFF782FF05E0204600F04AF8204600F07E
:1018200048F8002020772068006900F0010058B1D6
:101830002068C06800F0010030B16FF0010021683D
:101840000861204600F036F820680069C0F3C01037
:1018500058B12068C068C0F3C01030B16FF080008C
:10186000216808612046FFF7CDFE20680069C0F3BB
:10187000801058B12068C068C0F3801030B16FF09C
:10188000400021680861204600F020F820680069C7
:10189000C0F3401058B12068C068C0F3401030B1A8
:1018A0006FF02000216808612046FFF7ACFE10BDF4
:1018B0007047704710B5044603492068884201D13B
:1018C000FFF7F4F910BD00000000014070477047B9
:1018D000704700002DE9F84F04462068056820682D
:1018E000C668206847694FF00009CA4605F00F092D
:1018F000B9F1000F0AD105F0200038B106F0200040
:1019000020B1204600F0E6FEBDE8F88FB9F1000FE7
:101910007CD007F0010018B906F49070002875D04B
:1019200005F0010030B106F4807018B1206C40F071
:101930000100206405F0040030B107F0010018B187
:10194000206C40F00200206405F0020030B107F086
:10195000010018B1206C40F00400206405F008007C
:1019600048B106F0200010B907F0010018B1206C52
:1019700040F008002064206C002846D005F02000CC
:1019800028B106F0200010B1204600F0A3FE206828
:101990004069C0F3801A206C00F0080010B9BAF159
:1019A000000F2DD0204600F04FFE2068406900F067
:1019B0004000402820D100BF00BF2168143151E809
:1019C000001F21F040002168143141E80002002A84
:1019D000F3D100BFA06B50B17548A16B0865A06B37
:1019E000FFF738F888B1A06B016D88470DE02046FD
:1019F000FFF76EFF09E009E02046FFF769FF04E00A
:101A00002046FFF765FF002020647DE7206B01285A
:101A100076D105F01000002872D006F010000028E2
:101A2000FAD000BF00200090206800680090206875
:101A30004068009000BF00BF2068406900F040008F
:101A400040285ED1A06B006840681FFA80F8B8F1AA
:101A5000000F54D0A08D404551DDA4F82E80A06B1E
:101A6000C069B0F5807F43D000BF00BF21680C3152
:101A700051E8001F21F4807021680C3141E8000218
:101A8000002AF3D100BF00BF00BF2168143151E824
:101A9000001F21F001002168143141E80002002AF2
:101AA000F3D100BF00BF00BF2168143151E8001F0F
:101AB00021F040002168143141E80002002AF3D1EE
:101AC00000BF202084F83E000020206300BF00BF3C
:101AD00021680C3151E8001F21F0100021680C3101
:101AE00041E80002002AF3D100BFA06BFEF75CFFC3
:101AF000A08DE28D801A81B22046FFF7E8FE03E751
:101B000040E0A08DE18D401A1FFA80F8E08DC0B34F
:101B1000B8F1000F35D000BF00BF21680C3151E88B
:101B2000001F21F4907021680C3141E80002002A66
:101B3000F3D100BF00BF00BF2168143151E8001F7E
:101B400021F001002168143141E80002002AF3D19C
:101B500000BF202084F83E000020206300BF00BFAB
:101B600021680C3151E8001F21F0100021680C3170
:101B700041E80002002AF3D100BF41462046FFF7AA
:101B8000A6FEC1E605F0800030B106F0800018B175
:101B9000204600F054FFB7E605F0400030B106F0F3
:101BA000400018B1204600F085FDADE600BFABE671
:101BB0003526000810B504460CB9012010BDA069F7
:101BC00000B100E000BF94F83D0028B9002084F87F
:101BD0003C00204600F028F8242084F83D002068CE
:101BE000C06820F400502168C860204600F0EEFD77
:101BF0002068006920F490402168086120684069ED
:101C000020F02A00216848612068C06840F4005034
:101C10002168C86000202064202084F83D0084F8FA
:101C20003E000020CAE7000010B586B0044614212B
:101C300001A8FEF79BFC5D492068884238D100BFAF
:101C4000002000905A48006840F40020584908607D
:101C50000846006800F40020009000BF00BF00BFED
:101C60000020009052481038006840F001005049B0
:101C7000103908600846006800F00100009000BFBD
:101C800000BF032001900220029000200390032057
:101C900004900820059001A94648FEF703FF0022A2
:101CA00005213420FFF7ACF83420FFF799F87BE0EA
:101CB0004149206888423BD100BF002000903C4849
:101CC000001D006840F010003949091D08600846F1
:101CD000006800F01000009000BF00BF00BF0020AF
:101CE000009033481038006840F001003049103946
:101CF00008600846006800F00100009000BF00BFC7
:101D00004FF4C06001900220029001200390032054
:101D100004900720059001A92648FEF7C3FE002283
:101D200005212520FFF76CF82520FFF759F83BE047
:101D300022492068884237D100BF002000901C480B
:101D4000006840F400301A4908600846006800F452
:101D50000030009000BF00BF00BF0020009014487A
:101D60001038006840F00100114910390860084639
:101D7000006800F00100009000BF00BF0C2001903F
:101D80000220029001200390032004900720059078
:101D900001A90848FEF786FE002205212620FFF74C
:101DA0002FF82620FFF71CF806B010BD004C0040AD
:101DB0004038024000000240001001400044004052
:101DC00070B504460D46164694F83E00202816D1FC
:101DD00005B10EB9012070BD00BF94F83C00012888
:101DE00001D10220F7E7012084F83C0000BF002069
:101DF000206332462946204600F0FEFDEBE7022034
:101E0000E9E7000010B504463A492068884236D117
:101E10003948008800F4004088BB3748008800F447
:101E2000804070B1354800780A2803D0002032493C
:101E3000088024E03048008840F400402E490880A3
:101E40001DE02E4800780D2806D12B48008840F46C
:101E500080402949088012E02848007826490988EE
:101E6000C1F30D01264A505423480088401C2249E2
:101E7000088008460088C72801DD00200880214925
:101E80002068884218D1204800880B2811DA1F48A2
:101E900000781F491C4A128821F812001A4800884D
:101EA000401C19490880012218491A48FFF788FF89
:101EB00002E000201449088017492068884218D1A0
:101EC000164800880A2811DA154801781548134A7F
:101ED000128820F8121011480088401C0F49088011
:101EE00001220F491048FFF76BFF02E000200B4969
:101EF000088010BD001001402C0000202E000020A2
:101F00000C03002000440040300000202F0000207F
:101F1000D403002084040020004C00403400002042
:101F200032000020E8030020FC0300202DE9F84FD8
:101F300004460E46174699464FF0000A94F83D00B5
:101F400020285AD106B117B90120BDE8F88F00BF8B
:101F500094F83C00012801D10220F6E7012084F822
:101F60003C0000BF00202064212084F83D00FEF7E3
:101F700097FE8246A784E784A068B0F5805F04D10D
:101F8000206910B90025B04602E035464FF0000840
:101F900000BF002084F83C0000BF1BE05346002235
:101FA00080212046CDF8009000F079FD08B1032093
:101FB000CBE745B9B8F80000C0F3080021684860D5
:101FC00008F1020803E02878216848606D1CE08C65
:101FD000401EE084E08C0028E0D1534600224021DE
:101FE0002046CDF8009000F05AFD08B10320ACE780
:101FF000202084F83D000020A7E70220A5E77047D5
:1020000000BFFEE700BF012251020D48FEF742FE6D
:1020100000224FF400710A48FEF73CFE01225102F3
:102020000748FEF737FE00224FF400710448FEF720
:1020300031FE04A0FEF7F4F9012000F0D2FDE2E742
:10204000001402406C65642072756E207461736BBD
:102050000000000010B50548054908600846FEF775
:1020600079FC08B1FEF739FC10BD000000300240D9
:102070001800002000B5A1B01E4B0FCBCDE91F23E7
:10208000CDE91D0100211DA800F0BCFD1A49086022
:102090001C221849103116A8FEF72EFA002116A8A6
:1020A00000F0C4FD154908601C2212492C310FA80C
:1020B000FEF722FA00210FA800F0B8FD10490860D1
:1020C0001C220C49483108A8FEF716FA002108A87E
:1020D00000F0ACFD0B4908601C220649643101A8E0
:1020E000FEF70AFA002101A800F0A0FD06490860E9
:1020F00021B000BDB83D00081400002004000020FD
:10210000080000200C0000201000002000B587B05F
:10211000142102A8FEF72AFA00BF002001903048DF
:10212000006840F020002E4908600846006800F072
:102130002000019000BF00BF00BF002001900846B2
:10214000006840F0800008600846006800F08000E9
:10215000019000BF00BF00BF00200190084600684A
:1021600040F0010008600846006800F0010001909E
:1021700000BF00BF00BF002001900846006840F08B
:10218000400008600846006800F04000019000BF71
:1021900000BF00224FF4C0611248FEF77BFD002211
:1021A0004FF480711048FEF775FD4FF4C060029047
:1021B00001200390002004900220059002A9094804
:1021C000FEF770FC4FF48070029001200390022013
:1021D0000490059002A90448FEF764FC07B000BD16
:1021E00030380240001402400018024010B50D487B
:1021F0000D4908604FF41650486000210A4881607C
:10220000C16001610C21416100218161C161FFF761
:10221000D1FC08B1FEF761FB012204490248FFF737
:10222000CFFD10BD004C0040FC0300203200002018
:1022300010B50D480D4908604FF416504860002154
:102240000A488160C16001610C2141610021816106
:10225000C161FFF7AFFC08B1FEF73FFB0122044963
:102260000248FFF7ADFD10BD001001404004002002
:102270002E00002010B50D480D4908604FF416508F
:10228000486000210A488160C16001610C21416100
:1022900000218161C161FFF78DFC08B1FEF71DFBD4
:1022A000012204490248FFF78BFD10BD00440040A5
:1022B000840400202F00002000BFFEE700BFFEE7DF
:1022C00070B504460D460120FEF7D8FB012211022D
:1022D0000E48FEF7DFFC0120FEF7D0FB4FF47A73C7
:1022E0002A4621460A48FFF721FE0120FEF7C6FBD9
:1022F0000120FEF7C3FB00224FF480710348FEF774
:10230000C9FC0120FEF7BAFB70BD000000180240B6
:10231000840400203EB5204800788DF804001E4853
:1023200080788DF805001C4800798DF806001A4861
:1023300080798DF807001848007A8DF80800164853
:10234000807A8DF809001448007B8DF8000012484F
:10235000807B8DF801001048007C8DF802000E484B
:10236000807C8DF8030001A8FEF738FA054607E0E7
:102370001DF80400295D884202D00020074908703A
:102380000648007808B1052CF2DB0448007810B14B
:1023900003A0FEF745F83EBDD40300200000002056
:1023A000436865636B206F6B0000000000BF03A0F3
:1023B000FEF736F8012000F014FCF8E7646566616A
:1023C000756C74207461736B0000000010B500BF61
:1023D000502080F31188BFF34F8FBFF36F8F00BF82
:1023E00001F072FB18B14FF080500449086000BF43
:1023F000002080F3118800BF10BD000004ED00E054
:1024000000B593B0302107A8FEF7B0F8142102A858
:10241000FEF7ACF800BF002001902548006840F0AE
:102420008050234908600846006800F08050019001
:1024300000BF00BF00BF002001901E48006840F4AC
:1024400080401C4908600846006800F48040019004
:1024500000BF00BF0220079001200A9010200B90BF
:1024600002200D9000210E9108210F91A8211091BA
:10247000022111910421129107A8FEF775FE08B1FF
:10248000FEF72BFA0F200290022003900020049008
:102490004FF4A05005904FF480500690052102A8FB
:1024A000FEF700FD08B1FEF718FA13B000BD0000FA
:1024B00040380240007000400348006840F470005B
:1024C000014908607047000088ED00E010B502483F
:1024D000FFF723F910BD0000C804002010B5026802
:1024E000294B98420ED0B0F1804F0BD0274B984229
:1024F00008D0274B984205D0264B984202D0264B55
:10250000984203D122F070024B681A431E4B984246
:1025100020D0B0F1804F1DD01C4B98421AD01C4BDC
:10252000984217D01B4B984214D01B4B984211D0A5
:102530001A4B98420ED01A4B98420BD0194B984226
:1025400008D0194B984205D0184B984202D0184B2E
:10255000984203D122F44072CB681A4322F08003E0
:102560004C6943EA040202608B68C3620B688362B1
:10257000054B984202D0084B984201D10B69036386
:102580000123436110BD0000000001400004004031
:1025900000080040000C00400004014000400140E1
:1025A000004401400048014000180040001C004069
:1025B000002000402DE9F04385B08046894616464C
:1025C0001F468DF808808DF8099030128DF80A00AA
:1025D000F0B28DF80B0038128DF80C00F8B28DF8BF
:1025E0000D00002505E002A8405D0DF80500681CFF
:1025F000C5B2062DF7DB6846FEF7F0F804462078F2
:102600008DF80E0060788DF80F00A0788DF810001E
:10261000E0788DF811000A2102A8FFF751FE05B0FD
:10262000BDE8F08310B50248FFF754F910BD000073
:10263000FC03002070B50546AC6B0020E085E0840B
:102640002046FFF745F970BD00BF00BF02680C329D
:1026500052E8002F22F4907102680C3242E8001315
:10266000002BF3D100BF00BF00BF0268143252E854
:10267000002F22F001010268143242E80013002BFF
:10268000F3D100BF016B01290ED100BF00BF02686A
:102690000C3252E8002F22F0100102680C3242E89E
:1026A0000013002BF3D100BF202180F83E10002141
:1026B0000163704710B504462068C06820F04000F0
:1026C0002168C860202084F83D002046FFF797FC71
:1026D000002010BDF8B5044694F83E00222873D1BE
:1026E000A068B0F5805F0CD1206950B90025A66ABA
:1026F00020684068C0F308003080A06A801CA06297
:1027000015E0A56A0026A068B0F5805F03D0A06838
:1027100028B9206918B920684068287004E020684A
:10272000406800F07F002870A06A401CA062E08D25
:10273000401E80B2E085002844D12068C06820F0A7
:1027400020002168C8602068C06820F4807021687B
:10275000C8602068406920F001002168486120209D
:1027600084F83E00206B012826D10020206300BFA2
:1027700000BF21680C3151E8001F21F010002168D2
:102780000C3141E80002002AF3D100BF2068006844
:1027900000F0100010280AD100BF0020009020682F
:1027A0000068009020684068009000BF00BFA18DC5
:1027B0002046FFF78CF802E02046FFF723FB0020BD
:1027C000F8BD01E00020FBE70220F9E72DE9F84F12
:1027D00004462068006920F44050E16808432168FD
:1027E00008612169A068084361690843E1690843F9
:1027F00000902068C06849F20C6188430099084342
:102800002168C8602068406920F44070A1690843CD
:102810002168486176492068884203D0754920685C
:10282000884203D1FEF738FC814602E0FEF724FC23
:102830008146E069B0F5004F6CD102206168A0FBD1
:10284000015003461920A9FB007001462A4638466C
:10285000FDF76FFD6421B0FBF1F04FEA001A022092
:102860006168A0FB01510B461920A9FB00712A46A3
:102870003846FDF75EFD834602206168A0FB0150EB
:1028800003461920A9FB00712A463846FDF751FD81
:102890006421B0FBF1F000EBC00101EB0010ABEBE9
:1028A0008000322101EBC0006421B0FBF1F000F0A8
:1028B000F8000AEB400A02206168A0FB01500346C1
:1028C0001920A9FB007001462A463846FDF731FD64
:1028D000834602206168A0FB015003461920A9FB32
:1028E00000712A463846FDF724FD6421B0FBF1F063
:1028F00000EBC00101EB0010ABEB8000322101EBDB
:10290000C0006421B0FBF1F000F0070050442168E2
:1029100088606AE004206168A0FB0150034619202A
:10292000A9FB007001462A463846FDF702FD8246A3
:1029300004206168A0FB015003461920A9FB007028
:1029400001462A463846FDF7F4FC6421B0FBF1F05D
:1029500000EBC00101EB0010AAEB8000322101EB7B
:1029600000106421B0FBF1F000F0F00A042061686F
:10297000A0FB017003461920A9FB00513A462846E6
:10298000FDF7D7FC6421B0FBF1F00AEB001A04203C
:102990006168A0FB01510B461920A9FB00712A4672
:1029A0003846FDF7C6FC834604206168A0FB015051
:1029B00003461920A9FB007001462A463846FDF758
:1029C000B8FC6421B0FBF1F000EBC00101EB00109A
:1029D000ABEB8000322101EB00106421B0FBF1F081
:1029E00000F00F00504421688860BDE8F88F0000B7
:1029F000001001400014014010B5034699629A8509
:102A0000DA8500201864222083F83E0000BF0020F1
:102A100083F83C0000BF1868C06840F480701C68F0
:102A2000E0601868406940F001001C686061186847
:102A3000C06840F020001C68E060002010BD014626
:102A400091F83D00212828D18868B0F5805F0BD12E
:102A5000086948B90A6A1088C0F308000B68586012
:102A6000086A801C086205E00B6A581C0862187826
:102A70000B685860C88C401E80B2C88458B908687A
:102A8000C06820F080000B68D8600868C06840F01B
:102A900040000B68D860002070470220FCE72DE959
:102AA000F04104460D4617469846069E34E0701CD9
:102AB00088B32EB1FEF7F4F8A0EB0800B0422BD992
:102AC00000BF00BF21680C3151E8001F21F4D07015
:102AD00021680C3141E80002002AF3D100BF00BF99
:102AE00000BF2168143151E8001F21F00100216866
:102AF000143141E80002002AF3D100BF202084F8FD
:102B00003D0084F83E0000BF002084F83C0000BF78
:102B10000320BDE8F081FFE7206800682840A84254
:102B200001D1012000E00020B842C0D00020F0E731
:102B300010B50248FEF7CEFE10BD00004004002094
:102B400010B50248FEF7C6FE10BD00008404002048
:102B500000BFFEE702480068C0F302207047000093
:102B60000CED00E010B5002804DB0A07130E054A3F
:102B7000135406E00A07140E034A00F00F031B1F4C
:102B8000D45410BD00E400E018ED00E000BF704731
:102B900000BF054A126802F04002002AF9D0C2B212
:102BA000014B5A607047000000100140FEF78AF8A0
:102BB000FFF726FCFFF7AAFAFFF73AFBFFF75AFBED
:102BC000FFF714FBFFF746FAFFF754FA00F015F889
:102BD00000BFFEE701460020842901D0CA1C104432
:102BE000704770B5044625460DB1294600E0012125
:102BF000084600F067FC002070BD10B500F090FCA6
:102C0000002010BDF8B504460D46A06840B1E0684C
:102C100030B10020009094E80F0000F008FEF8BDED
:102C20000022D4E9000100F0D5FDF8E77FB50446A5
:102C30000D46606998B1A06988B1B4F90800FFF742
:102C4000C9FF0646D4E90510CDE9006102902B4684
:102C50002269D4E9001000F0D9FE039013E0B4F922
:102C60000800FFF7B7FF064603A8CDE90060238AF6
:102C70009AB22B46D4E9001000F096FE012802D04B
:102C8000002004B070BD0398FBE700002DE9F0417F
:102C900005460E461C4807681C480068001D00F0E9
:102CA0000DFB50B91948006890F82C10012088409D
:102CB00017490968814316480160681C38B936B164
:102CC00012480168091D134800F042FB1AE07C1904
:102CD0000E4800684460BC4207D20C480168091DD8
:102CE0000D48006800F01AFB0CE008480168091D57
:102CF0000A48006800F012FB09480068844201D2CB
:102D000007480460BDE8F0815C0000204800002016
:102D100060000020EC050020500000204C00002046
:102D20007800002010B5044600F01EFB244800681F
:102D3000401C234908602348006840B921480460CA
:102D40000846006801280DD100F05AF90AE01E4833
:102D5000006838B91B480068C06AE16A884201D837
:102D60001848046019480068401C18490860084663
:102D70000068606494F82C100120884014490968A8
:102D8000084313490860E16A01EB8101114A02EB33
:102D90008100211D00F0DCFA00F010FB0A480068F9
:102DA00068B108480068C06AE16A884207D24FF0FB
:102DB000805009490860BFF34F8FBFF36F8F10BD7C
:102DC000580000204800002064000020740000200B
:102DD000600000201005002004ED00E010B516E0B2
:102DE00000F0C2FA0C48C068C468201D00F066FA02
:102DF0000A480068401E0949086009480068401EEA
:102E00000749086000F0DAFA204600F00BF80448A1
:102E100000680028E4D110BDD8050020580000202B
:102E20005400002010B5044694F8590030B9206BC6
:102E300000F0E2FA204600F0DFFA1AE094F85900B8
:102E4000012803D1204600F0D7FA12E094F8590087
:102E5000022801D1012000E0002050B900BF50201D
:102E600080F31188BFF34F8FBFF36F8F00BF00BF98
:102E7000FEE710BD30B54FF47053174800F007045B
:102E80002CB1C01D20F00700134C041B1B1B024675
:102E9000124C22600024114D6C60D018083820F0CC
:102EA00007000F4C206000240D4D2D686C600C4D08
:102EB0002D682C601146441A4C60094C24680C6043
:102EC000084D4C682C60084D4C682C604FF0004455
:102ED000064D2C6030BD000000060020840000205C
:102EE0008C0000209400002090000020A000002012
:102EF00000BFFFF773FF064800680128F9D94FF0BB
:102F0000805004490860BFF34F8FBFF36F8FF0E725
:102F10001005002004ED00E02DE9F04106460D46C5
:102F200017469846069C0DB9246000E02760E663CA
:102F300025640121204600F0EBFC84F84C80BDE8BC
:102F4000F0812DE9F05F82460E4690469B460A9F2F
:102F50000C9C4FEA8801A522206BFDF7FFFAA8F12F
:102F60000100216B01EB800929F0070909F0070036
:102F700008B9012000E0002050B900BF502080F3C4
:102F80001188BFF34F8FBFF36F8F00BF00BFFEE705
:102F900086B1002507E0715D04F134004155705D94
:102FA00000B902E06D1C102DF5D300BF00214320B5
:102FB000015502E0002084F83400072F00D30627D3
:102FC000E762E76400202065201D00F0A4F904F109
:102FD000180000F0A0F92461C7F10700A061646245
:102FE0000020606584F858005A465146484600F073
:102FF0004FF920600B9808B10B980460BDE8F09F72
:1030000010B5002407E004EB84010F4A02EB8100B5
:1030100000F074F9641C072CF5D30C4800F06EF92D
:103020000B4800F06BF90B4800F068F90A4800F013
:1030300065F90A4800F062F9044809490860044843
:103040000849086010BD0000100500209C05002004
:10305000B0050020C4050020D8050020EC050020A4
:103060004C0000205000002010B50146164800E03A
:10307000006803688B42FBD30246436813448B42CB
:1030800004D143684C682344436001460A464B68B8
:1030900013440468A34211D10C4C03682468A34272
:1030A00008D04B680468646823444B6003681B685D
:1030B0000B6005E0054B1B680B6001E003680B60CB
:1030C000884200D0016010BD840000208C000020E8
:1030D0000A490968096809B9012100E0002121B104
:1030E0004FF0FF31064A116006E004490968C968DB
:1030F000C868034A41681160704700004C00002016
:10310000780000200E480068401C08B9012000E04B
:10311000002050B900BF502080F31188BFF34F8FBB
:10312000BFF36F8F00BF00BFFEE700BF502080F3EA
:103130001188BFF34F8FBFF36F8F00BF00BFFEE753
:10314000A40000202DE9F04104464FF0000800F0F3
:103150003FFA4948006808B9FFF78CFE4748006805
:103160002040002870D1D4B1083404F00700B0B179
:1031700004F00700C0F10800044404F0070008B997
:10318000012000E0002050B900BF502080F31188DA
:10319000BFF34F8FBFF36F8F00BF00BFFEE7002C60
:1031A00052D03748006884424ED8364E30460568C3
:1031B00001E02E462D686868A04202D228680028E7
:1031C000F7D12D48006885423ED0306800F10808EC
:1031D000286830606868001B102819D92F1907F07B
:1031E000070008B9012000E0002050B900BF5020BE
:1031F00080F31188BFF34F8FBFF36F8F00BF00BF05
:10320000FEE76868001B78606C603846FFF72CFFAB
:103210001B4968680968081A194908600846006867
:1032200019490968884203D21548006816490860A0
:1032300012496868096808436860002028601348DC
:103240000068401C1149086000F02EFD08F00700DE
:1032500008B9012000E0002050B900BF502080F3E1
:103260001188BFF34F8FBFF36F8F00BF00BFFEE722
:103270004046BDE8F08100008C000020A000002046
:10328000900000208400002094000020980000207E
:10329000001F4FF080730360001F21F001030360E3
:1032A000001F054B036014380260001F6FF002031B
:1032B00003602038704700000531000801460A69A4
:1032C000D1E901309860D1E9010358605068884223
:1032D00001D188685060002008611068401E1060AD
:1032E00010687047034B0360034B0B60802313602F
:1032F00070470000B00000200C01002000F1080120
:1033000041604FF0FF31816000F10801C16001614F
:1033100000210160704700210161704710B502462D
:103320000B685C1C0CB9106907E002F1080000E0B2
:103330004068446824689C42FAD944684C604C68F0
:10334000A160886041600A611468641C146010BD4B
:1033500042684A6093688B60936859609160086125
:1033600003685B1C0360704700BF502080F3118826
:10337000BFF34F8FBFF36F8F00BF0E480068401C34
:103380000C49086008460068012812D10A48006804
:10339000C0B208B9012000E0002050B900BF5020A1
:1033A00080F31188BFF34F8FBFF36F8F00BF00BF53
:1033B000FEE77047A400002004ED00E00D4800681F
:1033C00050B900BF502080F31188BFF34F8FBFF377
:1033D0006F8F00BF00BFFEE706480068401E05492A
:1033E00008600846006820B9002080F3118800BFFB
:1033F00000BF7047A400002070B506463546002E79
:1034000044D0083D2C46224960680968084008B14C
:10341000012000E0002050B900BF502080F3118847
:10342000BFF34F8FBFF36F8F00BF00BFFEE7206871
:1034300008B9012000E0002050B900BF502080F3FF
:103440001188BFF34F8FBFF36F8F00BF00BFFEE740
:103450000F49606809680840C0B12068B0B90C49DC
:10346000606809688843606000F0B2F809496068E4
:1034700009680844074908602046FFF7F5FD06483B
:103480000068401C0449086000F00EFC70BD00009C
:10349000A0000020900000209C00002000204FF0A1
:1034A000E02108618861064800684FF47A71B0FB3A
:1034B000F1F0401E4FF0E02148610720086170479D
:1034C0004400002070B504460025D4B112480068BD
:1034D00008B9012000E0002050B900BF502080F35F
:1034E0001188BFF34F8FBFF36F8F00BF00BFFEE7A0
:1034F00000F06EF800212046FFF7C8FB00F0D4FB77
:1035000005463DB94FF0805004490860BFF34F8F26
:10351000BFF36F8F70BD00008000002004ED00E05D
:1035200010B586B000200590049003AA04A905A850
:10353000FFF7D8FE0022DDE904101346CDE9002193
:1035400002901CA11D48039A00F060FA1C49086013
:103550000846006808B1012400E00024012C15D1C0
:1035600000BF502080F31188BFF34F8FBFF36F8FE0
:1035700000BF4FF0FF301349086001201249086076
:1035800000201249086000F071F810E0601C08B1DA
:10359000012000E0002050B900BF502080F31188C6
:1035A000BFF34F8FBFF36F8F00BF00BFFEE706B0C2
:1035B00010BD000049444C4500000000F12E0008F9
:1035C0007C00002078000020640000205C000020C7
:1035D00002480068401C01490860704780000020D4
:1035E0001D48006818B101201C49086032E0002025
:1035F0001A4908601A480068B0FA80F0C0F11F014B
:1036000001EB8100174A52F8200008B1012000E0C8
:10361000002050B900BF502080F31188BFF34F8FB6
:10362000BFF36F8F00BF00BFFEE701EB81020D4BC0
:1036300003EB820042685268426000F1080243686E
:10364000934202D14268526842604268D268064B97
:103650001A6000BF70470000800000206C0000204E
:103660006000002010050020480000201CB55248D2
:1036700000685249884201D0012000E0002050B982
:1036800000BF502080F31188BFF34F8FBFF36F8FBF
:1036900000BF00BFFEE7484800684849491E88420D
:1036A00001D0012000E0002050B900BF502080F37D
:1036B0001188BFF34F8FBFF36F8F00BF00BFFEE7CE
:1036C0003F49084600780190FF200A4610700846DE
:1036D000007800909DF8000000F0F0009DF80020B8
:1036E000904201D1012000E0002050B900BF5020DD
:1036F00080F31188BFF34F8FBFF36F8F00BF00BF00
:10370000FEE79DF8000000F050002E4A10700720E0
:103710002D4A106009E02C480068401E2A4A1060BB
:103720009DF800004006000E00909DF8000000F09B
:1037300080008028EFD024480068C0F107000428EA
:1037400001D1012000E0002050B900BF502080F3DB
:103750001188BFF34F8FBFF36F8F00BF00BFFEE72D
:10376000194800680002184A10601046008800F4EA
:10377000E0601060124A019810700F482030006815
:1037800040F470000C49203108600846006840F0A1
:1037900070400860FFF782FE00200C490860FCF7CB
:1037A0006BFD0B48006840F0404009490860FCF799
:1037B0004FFD00201CBD000000ED00E071C20F4174
:1037C00000E400E0A8000020AC000020A4000020DD
:1037D00034EF00E02DE9F84305460E4617460DB1DB
:1037E000012000E0002050B900BF502080F3118874
:1037F000BFF34F8FBFF36F8F00BF00BFFEE705FB26
:1038000006F808F15000FFF79DFC044664B1A1469C
:1038100009F15009002084F846003B464A463146EB
:1038200028460094FFF778FB2046BDE8F8832DE991
:10383000F84380460E4617461D46DDF82090B8F145
:10384000000F01D0012000E0002050B900BF50203F
:1038500080F31188BFF34F8FBFF36F8F00BF00BF9E
:10386000FEE70DB1012000E0002050B900BF50205C
:1038700080F31188BFF34F8FBFF36F8F00BF00BF7E
:10388000FEE707B10EB1012000E0002050B900BFF3
:10389000502080F31188BFF34F8FBFF36F8F00BFAD
:1038A00000BFFEE707B90EB9012000E0002050B9C3
:1038B00000BF502080F31188BFF34F8FBFF36F8F8D
:1038C00000BF00BFFEE7502000900098502801D1B3
:1038D000012000E0002050B900BF502080F3118883
:1038E000BFF34F8FBFF36F8F00BF00BFFEE700BF76
:1038F0002C464CB1012084F846004B463A463146EE
:1039000040460094FFF708FB2046BDE8F88300001E
:1039100070B505460E462C4654B900BF502080F3C2
:103920001188BFF34F8FBFF36F8F00BF00BFFEE75B
:10393000FFF71AFDD4E90F12206801FB0200A06016
:103940000020A06320686060E06B401E226C21684C
:1039500000FB0211E160FF2084F8440084F8450078
:103960009EB9206908B9012000E00020A8B904F13F
:10397000100000F04DF980B14FF080500949086007
:10398000BFF34F8FBFF36F8F07E004F11000FFF715
:10399000B5FC04F12400FFF7B1FCFFF70FFD012097
:1039A00070BD000004ED00E02DE9FF4F85B08046BA
:1039B00089461746DDE912ABB800FFF7C3FB0646A0
:1039C00056B15C20FFF7BEFB04460CB1266304E051
:1039D0003046FFF711FD00E000248CB1002084F890
:1039E0005900CDE900ABCDE902403A464946404690
:1039F000089BFFF7A6FA2046FFF794F9012501E09E
:103A00004FF0FF35284609B0BDE8F08F2DE9F04FA3
:103A100085B00746884691469A46DDE90EB6109C69
:103A20000EB1012000E0002050B900BF502080F30B
:103A30001188BFF34F8FBFF36F8F00BF00BFFEE74A
:103A40000CB1012000E0002050B900BF502080F3ED
:103A50001188BFF34F8FBFF36F8F00BF00BFFEE72A
:103A60005C20039003985C2801D1012000E0002035
:103A700050B900BF502080F31188BFF34F8FBFF3C0
:103A80006F8F00BF00BFFEE700BFB4B1AEB12546E7
:103A90002C462E63022085F85900002004A95346C5
:103AA0004A46CDE900B1CDE9025041463846FFF71C
:103AB00048FA2846FFF736F901E000200490049800
:103AC00005B0BDE8F08F00002DE9F0414FF000088F
:103AD0004448006800287CD143480068451C42489F
:103AE000056015BB41480068006808B9012000E086
:103AF000002050B900BF502080F31188BFF34F8FD2
:103B0000BFF36F8F00BF00BFFEE738480768384833
:103B10000068364908603648076036480068401C2F
:103B200034490860FFF7D4FA00BF33480068854283
:103B30003CD300BF2D480068006808B9012000E0B0
:103B4000002020B14FF0FF302B4908602DE02748BE
:103B50000068C068C4686668B54202D2264806603C
:103B600023E0201DFFF7AAFBA06A18B104F118009A
:103B7000FFF7A4FB94F82C10012088401F49096826
:103B800008431E490860E16A01EB81011C4A02EB0F
:103B90008100211DFFF7DCFB1A49E06A0968C96A48
:103BA0008842C7D34FF00108C4E700BF154800683A
:103BB000C06A00EB8000124951F82000012801D9A9
:103BC0004FF001081048006808B14FF0010805E007
:103BD000FFE70E480068401C0C4908604046BDE8FD
:103BE000F0810000800000205C0000204C000020DC
:103BF00050000020700000207800002060000020AD
:103C000010050020480000206C0000206800002003
:103C100070B50646F068C46854B900BF502080F300
:103C20001188BFF34F8FBFF36F8F00BF00BFFEE758
:103C300004F11800FFF742FB15480068A8B9201DE1
:103C4000FFF73CFB94F82C100120884011490968CB
:103C5000084310490860E16A01EB81010E4A02EB5A
:103C60008100211DFFF774FB04E004F118010B48EB
:103C7000FFF76EFB0A49E06A0968C96A884204D9FD
:103C8000012501200749086000E00025284670BD95
:103C9000800000206000002010050020C4050020E6
:103CA000480000206C00002070B500240026364833
:103CB000006850B900BF502080F31188BFF34F8FC8
:103CC000BFF36F8F00BF00BFFEE7FFF74DFB2E482D
:103CD0000068401E2C4908600846006800284FD143
:103CE0002A48006800284BD024E02948C068C468EE
:103CF00004F11800FFF7E2FA201DFFF7DFFA94F84D
:103D00002C10012088402349096808432149086094
:103D1000E16A01EB8101204A02EB8100211DFFF7DE
:103D200017FB1E49E06A0968C96A884202D301206C
:103D30001B4908601648006808B9012000E000200F
:103D40000028D2D00CB1FFF7C3F91648056865B159
:103D500000BFFFF7B9FE10B10120114908606D1EC8
:103D6000002DF6D100200F4908600D48006838B1D9
:103D7000012630070C490860BFF34F8FBFF36F8FE8
:103D8000FFF71CFB304670BD80000020580000206B
:103D9000C40500206000002010050020480000201D
:103DA0006C0000206800002004ED00E04FF040703F
:103DB000E1EE100A70470000100000000200000051
:103DC0000000000000000000843E0008AD23000851
:103DD000FDFF000000000000800000000000000067
:103DE00000000000983E0008B10800080000000034
:103DF0000000000080000000000000000000000043
:103E0000903E000805200008FFFF000000000000B1
:103E1000800000000000000000000000783E000864
:103E2000E108000801000000000000008000000020
:103E30000000000000000000000000000000000082
:103E40000102030406070809000000000102030440
:103E500030313233343536373839414243444546C0
:103E600040305800303132333435363738396162BA
:103E700063646566403078006765745F54485F44EA
:103E80006174610064656661756C745461736B0084
:103E90006C656452756E00006461746150726F638A
:103EA00065737300C43E000800000020B0000000ED
:103EB000C4010008743F0008B0000020B0470000B3
:103EC000E001000801000000000000000000000008
:103ED00000000000000000000000000000000000E2
:103EE00000000000000000000000000000000000D2
:103EF00000000000000000000000000000000000C2
:103F000010000000010000000024F4000000000088
:103F100000000000000000000000000000000000A1
:103F20000000000000000000000000000000000091
:103F30000000000000000000000000000000000081
:103F40000000000000000000000000000000000071
:103F50000000000000000000000000000000000061
:103F60000000000000000000AAAAAAAA00000000A9
:043F7000000000004D
:040000050800018965
:00000001FF
